:020000040800F2
:100000003007002049010008351B000829130008AB
:10001000311B000807090008F12800080000000053
:10002000000000000000000000000000E9220008BD
:10003000110B000800000000A5210008D7230008CC
:100040006301000863010008630100086301000800
:100050006301000863010008590E000863010008ED
:10006000990E0008D90E0008190F00086301000856
:1000700063010008630100086301000863010008D0
:1000800063010008630100086301000863010008C0
:1000900063010008630100086301000863010008B0
:1000A00063010008392400086301000863010008A7
:1000B000A52400086301000863010008630100082B
:1000C0006301000863010008630100086301000880
:1000D00063010008C5260008E12600086301000846
:1000E0006301000863010008630100086301000860
:1000F0006301000863010008630100086301000850
:10010000630100086301000863010008630100083F
:10011000630100086301000863010008630100082F
:10012000630100086301000863010008630100081F
:10013000DFF810D000F064FB00480047D534000819
:10014000AFF300803007002006488047064800478C
:10015000FEE7FEE7FEE7FEE7FEE7FEE7FEE7FEE777
:10016000FEE7FEE7D92300083101000840EA010359
:100170009B0703D009E008C9121F08C0042AFAD25D
:1001800003E011F8013B00F8013B521EF9D2704721
:10019000D2B201E000F8012B491EFBD270470022C9
:1001A000F6E710B513460A4604461946FFF7F0FF76
:1001B000204610BD421E12F8013F002BFBD111F862
:1001C000013B02F8013B002BF9D1704730B50546E1
:1001D0002A460B4612F8010B13F8014B08B1A04256
:1001E000F8D01CB1002802D06D1CF1E7284630BDC4
:1001F000CAB2401E10F8011F8A4202D00029F9D16C
:1002000000207047421C10F8011B0029FBD1801A06
:10021000704710B5044600E0401C0378002BFBD16A
:1002200000E0401C521E04D311F8013B0370002B68
:10023000F7D100210170204610BD70B5064602F0CE
:1002400073FC046805460A220021304600F012FAC9
:100250002C6070BD2DE9FE4F804681EA0300C00F7F
:100260000C46009021F0004123F00045B8EB02005D
:10027000A94105D24046214690461C460B460246FF
:1002800023F00040104347D0270DC7F30A00C3F303
:100290000A510290401A019040286BDAC3F3130010
:1002A00040F4801B0098924620B10023D2EB030A51
:1002B00063EB0B0B01985946C0F14002504600F029
:1002C000B8F906460D4650465946019A00F0C0F965
:1002D00010EB08006141002487EA115284EAE773B9
:1002E0001A4340D0009A62B3019A012A4FEA07529A
:1002F00015DC001B61EB02014FF0004202EA0752DD
:10030000CDE90042001C41F5801132462B4600F039
:10031000F8F903B0BDE8F08F40462146F9E7001B2D
:1003200061EB0201001C41F5801300185B412018AD
:10033000A2F5001747EB030140EAD570B6196D41ED
:1003400011E06D084FEA360645EAC0754FEA0752DC
:10035000001B61EB0201001C41F5801149084FEAC6
:1003600030000019514132462B4603B0BDE8F04F32
:1003700000F0B8B90098012240000023D0EB02023F
:1003800063EBE073009821464FEAE074B8EB00009D
:1003900061EB0401E9E783F000435BE781F0004192
:1003A00058E72DE9FE4F81EA030404F0004421F0F0
:1003B000004100944FF0000B23F0004350EA010489
:1003C0005ED052EA03045BD0C3F30A54C1F30A556A
:1003D0002C44A4F2F3340194A0FB0254C1F31301A2
:1003E00041F48011C3F3130343F4801301FB02446F
:1003F00000FB034E840A970A44EA815447EA835774
:10040000A4FB076802958D0A05FB07854FEA932C2C
:1004100004FB0C542705029D4FEA065847EA16379D
:10042000B5EB08056EEB070C870E920E47EA8117B5
:1004300042EA8312A7FB0201B6EB0B0164EB000456
:100440002B0D43EA0C335E1844EB1C50DA46514640
:10045000E7FB0201C5F313044FEA0B3343EA1453DD
:100460004FEA0432019C43EA0603A4F10C0402940F
:10047000009CCDE900B400F044F903B0BDE8F08F72
:1004800000200146F9E72DE9F04D81EA030404F06C
:10049000004B21F0004514464FF0000A23F00041C4
:1004A00050EA050220D054EA01021DD0C5F30A57D4
:1004B0000246C5F31303C1F31300C1F30A5640F417
:1004C000801543F48013A7EB0608101BD64608F2EC
:1004D000FD3873EB050002D308F1010801E0921822
:1004E0005B41B8F1000F03DA00200146BDE8F08D52
:1004F00000204FF48011064684460EE0171B73EB74
:10050000050705D3121B63EB050306434CEA010CF8
:1005100049084FEA300092185B4150EA0107EDD1DB
:1005200052EA030012D082EA040083EA050108437C
:1005300005D0101BAB4106D20122002306E00022A9
:100540004FF0004302E06FF0010253101AEB060077
:100550004CEB085110EB0A0041EB0B01BDE8F04DEC
:1005600000F0C0B80EB540F2334102910021CDE950
:1005700000110A460B4600F0C4F803B000BD00F0BD
:10058000004230F000400AD0C10D01F56071C0F3A7
:10059000160042EA0151C20840071143704700208B
:1005A0000146704730B50B46014600202022012449
:1005B00009E021FA02F59D4205D303FA02F5491B31
:1005C00004FA02F52844151EA2F10102F1DC30BD47
:1005D0002DE9F05F0546002092469B468846064678
:1005E000814640241BE0284641464746224600F00B
:1005F00019F953465A46C01A914110D3114618466C
:10060000224600F016F82D1A67EB01084F462246E5
:100610000120002100F00DF817EB00094E41201ECB
:10062000A4F10104DFDC484631462A464346BDE8D2
:10063000F09F202A04DB203A00FA02F100207047E4
:100640009140C2F1200320FA03F319439040704710
:10065000202A06DBCB17203A41FA02F043EAE07386
:1006600006E041FA02F3D040C2F120029140084373
:10067000194670472DE9F04791460F4680460446DB
:10068000002614F8015B2DB100F0DCF80068405D35
:10069000C007F6D12B2D02D02D2D18D0641E4A464E
:1006A0003946204600F0D2F827B13968A14201D17D
:1006B000C7F8008071054FF002040BD540420028B6
:1006C00003DD02F031FA0460A007BDE8F08746F4CC
:1006D0008066E4E70028F8DA02F026FA04606FF09A
:1006E0000040F2E710B5141E73F1000408DA401C54
:1006F00041F1000192185B411A4301D120F0010041
:1007000010BD2DE9F04D92469B4611B1B1FA81F230
:1007100002E0B0FA80F220329046FFF78AFF0446EA
:100720000F4640EA0A0041EA0B0153465A46084385
:1007300013D0114653EA010019D0C8F140025046C7
:1007400000F070F805460E46504659464246FFF7FF
:1007500070FF084305D0012004E020463946BDE87B
:10076000F08D0020054346EAE0762C4337430A9893
:100770006305E40AA0EB08000022FD0A44EA47549E
:100780000A3002D500200146E9E701051019694148
:10079000DDE9084500196941BDE8F04DA2E7C1F364
:1007A0000A52C1F3130140F2FF3341F480119A421F
:1007B00002DA00200146704740F233439A42A2F227
:1007C000334202DC524200F02DB8FFF732BF000086
:1007D00030B5041E71F1000404DB4FF000444042C8
:1007E00064EB0101141E73F1000405DB1C464FF09D
:1007F0000043524263EB0403994208BF904230BD6C
:10080000064C074D06E0E06840F0010394E807005D
:1008100098471034AC42F6D3FFF78EFCCC37000873
:10082000EC370008202A04DB203A21FA02F00021EC
:10083000704721FA02F3D040C2F1200291400843F0
:100840001946704700487047C83700082DE9F05F27
:1008500082460078002715468B460AF10104B94606
:10086000302801D09DB113E014F8010B012778283E
:1008700003D0582801D045B10AE00DB1102D07D1A1
:100880000027102514F8010B02E0082500E00A25D6
:100890000026B0460EE005FB080005FB06F1012727
:1008A00001EB10461FFA80F8B6F5803F00D3B94639
:1008B00014F8010B294600F018F80028EBDABBF118
:1008C000000F05D00FB1641E00E05446CBF8004085
:1008D000B9F1000F06D002F027F902210160C81E0D
:1008E000BDE8F09F48EA0640FAE73A2800D23038DF
:1008F00020F02002412A01D3A2F13700884201D31F
:100900004FF0FF30704700BFFEE7000010B5002435
:100910001548006820F00F00134908600846006879
:1009200040F00800086004E0601CC4B2012002F03E
:1009300089FD0E48006808B1642CF5DB642C01DBEE
:10094000012010BD002404E0601CC4B2012002F0AC
:1009500079FD0648006808B9642CF5DB642C01DBDE
:100960000120EEE70020ECE70008014000012142F1
:1009700008B50121042001F027FC0120ADF800009A
:1009800010208DF8030003208DF802006946064808
:1009900000F0E6FB0121044800F0BFFC00F098F8ED
:1009A000FFF7B4FF08BD00000008014010B50024A7
:1009B00004E0601CC4B2012002F044FD0D48006850
:1009C00008B1642CF5DB002404E0601CC4B20120F3
:1009D00002F038FD0748006808B9642CF5DB2820D0
:1009E00002F030FD0348006808B1012010BD00206E
:1009F000FCE700000001214270B50024002506E05C
:100A00006006040EFFF7D2FF0443681CC5B2082D30
:100A1000F6DB204670BD00002DE9FC4700F058F8D9
:100A2000FFF774FF002848D1824607E0FFF7E4FF94
:100A30000DF80A000AF1010000F0FF0ABAF1050FF3
:100A4000F4DB9DF800009DF8011008449DF80210A9
:100A500008449DF8031008449DF8041088422FD1E3
:100A60009DF80100FFF77EFD06460022154BFFF7BB
:100A70000AFD04460D469DF80000FFF773FD804611
:100A800022462B46FFF7E6FB0F4A03C29DF8030000
:100A9000FFF768FD064600220A4BFFF7F4FC044608
:100AA0000D469DF80200FFF75DFD804622462B466D
:100AB000FFF7D0FB054A03C202E00120BDE8FC8736
:100AC0000020FBE700002440300000202800002028
:100AD00010B50C48006820F00F000A49086008466D
:100AE000006840F0030008600020074908601420F7
:100AF00002F084FC01200549C1F880011E2002F0AB
:100B0000A1FC10BD000801408001214200002142EB
:100B1000704700004FF0E020006920F004004FF023
:100B2000E02108610920074908700846007800EBB9
:100B30004001C1EBC0104FF6FF7101EAC00002494D
:100B4000088070471C0000201E00002010B5C8213E
:100B50000348FFF724FB00200249088010BD000075
:100B6000640000202000002070B50546002400BF6E
:100B700000F058F980B90DA10E48FFF727FB044695
:100B800054B13A212046FFF733FB044614B1641CEC
:100B9000204670BD0020FCE7052002F02FFC281E37
:100BA000A5F101018DB2E3D100BFF2E74950442C19
:100BB000000000006400002008B50121042001F0BD
:100BC00003FB10208DF803000220ADF80000032085
:100BD0008DF8020069462F4800F0C2FA0022022177
:100BE0002C4800F09CFBFA2002F008FC01220221B4
:100BF000284800F094FBFFF7A9FF27A1294801F03E
:100C000027FF02E0642002F0F9FB27A127A000F0F3
:100C1000B9F80028F6D127A1224801F019FF02E017
:100C2000C82002F0EBFB20A125A000F0ABF80028C3
:100C3000F6D127A11B4801F00BFF02E0C82002F00B
:100C4000DDFB19A126A000F09DF80028F6D127A110
:100C5000144801F0FDFE03E04FF4967002F0CEFB65
:100C600026A128A000F08EF80028F5D12DA10D486E
:100C700001F0EEFE03E04FF4967002F0BFFB2EA1F0
:100C80002FA000F07FF80028F5D138A1054801F029
:100C9000DFFE08BD000801400D0A312E2041540D31
:100CA0000A000000003801404F4B000041540D0A7B
:100CB00000000000322E2043574D4F44450D0A00DE
:100CC00041542B43574D4F44453D330D0A0000001E
:100CD000332E20B8B4CEBBC4A3BFE90D0A00000078
:100CE00041542B5253540D0A00000000342E20C1F1
:100CF000ACBDD3576946690D0A000000474F542028
:100D00004950000041542B43574A41503D225265FF
:100D1000646D69222C22303938373635343332311C
:100D2000220D0A00352E20C1ACBDD3544350B7FE6E
:100D3000CEF1C6F70D0A0000434F4E4E4543540016
:100D400041542B43495053544152543D2254435033
:100D5000222C223138332E3233302E34302E333998
:100D6000222C363030320D0A00000000382E20458B
:100D700053503832363620B3F5CABCBBAFB3C9B90D
:100D8000A60D0A002DE9F04104460D46C826FFF7DE
:100D9000DDFE2046FFF736FA87B23A4621460D4877
:100DA00001F07AFE0FE000F03DF848B929460A4804
:100DB000FFF70CFA20B1FFF7C9FE0020BDE8F08173
:100DC0000A2002F01BFB301EA6F10101CEB2EAD1CF
:100DD0000120F3E7004400406400002030B589B0F2
:100DE00004460D46FFF7B2FE2A4608A101A801F00D
:100DF0006DFE0AA101A8FFF7C5FF20B92A462146CA
:100E0000074801F049FE09B030BD000041542B43B2
:100E1000495053454E443D25640D0A003E000000F4
:100E2000004400400A48008808B90120704708487B
:100E3000008808490988884203D1002004490880B5
:100E4000F4E703480088034908800120EEE700002A
:100E5000200000202200002010B50A2002F0CEFA67
:100E60000121064800F050FA18B905A1094801F01F
:100E7000EFFD012000F0F8F810BD0000000801406F
:100E80000D0A20B0B4BCFC7334B1BBB0B4CFC20DFA
:100E90000A0000000038014010B50A2002F0AEFA46
:100EA0000421064800F030FA18B905A1094801F0FC
:100EB000CFFD042000F0D8F810BD0000001801405C
:100EC0000D0A20B0B4BCFC7333B1BBB0B4CFC20DBB
:100ED0000A0000000038014010B50A2002F08EFA26
:100EE0000821064800F010FA18B905A1094801F0D8
:100EF000AFFD082000F0B8F810BD00000018014058
:100F00000D0A20B0B4BCFC7332B1BBB0B4CFC20D7B
:100F10000A0000000038014010B50A2002F06EFA05
:100F20001021064800F0F0F918B905A1094801F0B0
:100F30008FFD102000F098F810BD0000001801404F
:100F40000D0A20B0B4BCFC7331B1BBB0B4CFC20D3C
:100F50000A000000003801400EB50121084601F0EA
:100F600033F900F0E3F90421084600F0D9F8102025
:100F7000019000208DF808000C208DF80900012058
:100F80008DF80A0001A800F075F80321042000F094
:100F9000C7F80820019000208DF808000C208DF87B
:100FA000090001208DF80A0001A800F063F8022171
:100FB000042000F0B5F80420019000208DF808000E
:100FC0000C208DF8090001208DF80A0001A800F01E
:100FD00051F80021084600F0A3F8012001900020FC
:100FE0008DF8080008208DF8090001208DF80A000E
:100FF00001A800F03FF80A208DF8000002208DF8CB
:1010000001008DF8020001208DF80300684600F011
:1010100093FD09208DF8000002208DF801008DF865
:10102000020001208DF80300684600F085FD0820CD
:101030008DF8000002208DF801008DF802000120DB
:101040008DF80300684600F077FD17208DF800004A
:1010500002208DF8010001208DF802008DF80300B8
:10106000684600F069FD0EBD014908607047000048
:1010700014040140002123498279002A3AD00A460B
:10108000126803689A430B461A600A1D12680368C7
:101090009A430B1D1A60027911440A6803681A43C7
:1010A0000A60184A0832126803689A43154B0833DD
:1010B0001A601A1D126803689A43124B0C331A60A7
:1010C0004279102A0ED11A1F126803681A430D4B79
:1010D00008331A601A1D126803681A43094B0C334F
:1010E0001A600DE00749427911440A6803681A43FF
:1010F0000A6005E0027911440A6803689A430A60AD
:10110000704700000004014010B500240020FFF7E4
:101110002BFD044614B1204600F004FF10BD000072
:1011200030B500228B071C0F0F2303FA04F20B4B80
:101130008C1053F824309343084C8D1044F825301C
:1011400023468C1053F824308C07240F00FA04F443
:101150002343024C8D1044F8253030BD0800014077
:101160002DE9F0410246002500260020002300243E
:10117000002791F803C00CF00F0591F803C00CF0A4
:10118000100CBCF1000F03D091F802C04CEA050529
:1011900091F800C0BCF1000F31D0146800202BE0A2
:1011A0004FF0010C0CFA00F3B1F800C00CEA030692
:1011B0009E4220D183004FF00F0C0CFA03F7BC4382
:1011C00005FA03FC4CEA040491F803C0BCF1280FB3
:1011D00006D14FF0010C0CFA00FCC2F814C00AE072
:1011E00091F803C0BCF1480F05D14FF0010C0CFA87
:1011F00000FCC2F810C0401C0828D1D31460B1F81C
:1012000000C0BCF1FF0F34DD546800202EE000F177
:10121000080C4FF0010808FA0CF3B1F800C00CEA12
:1012200003069E4221D183004FF00F0C0CFA03F706
:10123000BC4305FA03FC4CEA040491F803C0BCF17A
:10124000280F05D100F1080C08FA0CF8C2F8148038
:1012500091F803C0BCF1480F07D100F1080C4FF022
:10126000010808FA0CF8C2F81080401C0828CED3F8
:101270005460BDE8F0810000F0B50A460023002468
:101280000021002500F00046B6F1004F02D11D4EAE
:10129000F16901E01B4E7168C0F3034583B200F4AD
:1012A0004016B6F5401F08D121F07061154E7668E2
:1012B00026F07066134F7E6012E000F48016B6F5DB
:1012C000801F06D1032606FA05F4A14341F07061A0
:1012D00006E0460D360103FA06F6B14341F07061AF
:1012E00022B1460D360103FA06F6314300F00046FE
:1012F000B6F1004F02D1034EF16101E0014E716081
:10130000F0BD0000000001400246002093680B4041
:101310000BB1012000E000207047016170470AB165
:10132000016100E04161704700BFFEE708B501219F
:10133000082000F049FF0121042000F045FF0121B1
:10134000402000F041FF1C20ADF8000001208DF886
:10135000020048208DF8030069460848FFF700FFA7
:101360000320ADF8000001208DF8020048208DF820
:10137000030069460248FFF7F3FE08BD001801406C
:10138000000C014008B50121082000F01DFF0121DB
:10139000402000F019FF2020ADF8000003208DF858
:1013A000020010208DF8030069460448FFF7D8FEBC
:1013B00069460348FFF7D4FE08BD0000000C014059
:1013C0000018014010B50446207B012802D1206896
:1013D00002F058F8002020606060A060207310BD0B
:1013E0000246002301230DE002F07F000870D209BD
:1013F0002AB1087840F080000870491C01E01846C6
:1014000070475B1C042BEFDD4FF0FF30F8E770B541
:1014100004460E460025206898B901202073304606
:1014200002F0FCF820602068E0B100206060A66057
:1014300003E00020216848556D1CA068A842F8D838
:1014400010E00220207303E00020216848556D1C45
:10145000A068A842F8D800206060A068B04201D21D
:101460000020206070BD00002DE9FF5F07460D469B
:1014700090463846FEF7C6FE86B22846FEF7C2FE04
:101480001FFA80FA4FF00009B01D02F0C7F80446B9
:101490001CB9012004B0BDE8F09FB11D2046FEF745
:1014A0007EFE12A0016821608088A0803246394605
:1014B0002046FEF7AEFE2846FEF7A4FE8346012036
:1014C000002100915B462A46CDE9020801912146A0
:1014D0000A2000F077F910B94FF0000901E04FF051
:1014E0000109204601F0CEFF4846D3E7246372731A
:1014F000702F00002DE9FF4F83B082468B46914646
:10150000159C0025002002900F2701904846FEF709
:1015100079FE0FFA80F8B9F1000F03D1012007B06E
:10152000BDE8F08F08F10200384487B2109808B186
:1015300045F00205129878B145F004051298FEF7BF
:1015400061FEC0B202901398FEF75CFE014602985D
:10155000001D0844384487B2119820B1012804D0F6
:10156000022808D104E000BF07E045F00C0504E0C4
:1015700045F0140501E00220D1E700BF149808B13E
:1015800045F02405BAF1000F02D0BBF1000F01D1E4
:101590000320C4E745F0C0055046FEF733FE06467B
:1015A0005846FEF72FFE3044001D384487B23946B6
:1015B0002046FFF72CFF206808B90420AFE7394622
:1015C0002068FEF7ECFD10216268501C6060206806
:1015D0008154D4E90023D118781FFFF701FF00B22E
:1015E00001900198002804DA2046FFF7EBFE052061
:1015F00095E7616801980844606000216268501CAA
:1016000060602068815404216268501C606020681A
:1016100081544D216268501C6060206881545121C2
:101620006268501C60602068815454216268501CBC
:101630006060206881546268501C6060206881543A
:1016400004216268501C6060206881546168481CF5
:101650006060206845540698010A6268501C60600A
:10166000206881540698C1B26268501C606020688E
:101670008154C8F307216268501C6060206881545F
:101680006268501C6060206800F80280D4E9001293
:10169000881842464946FEF7BCFD606840446060D9
:1016A00005F00400B8B30026139808B938A01390C9
:1016B0001298FEF7A7FD86B2310A6268501C60607E
:1016C000206881546268501C606020688654D4E9A8
:1016D0000012881832461299FEF79BFD606830446C
:1016E00060601398FEF78EFD86B2310A6268501C66
:1016F0006060206881546268501C60602068865475
:10170000D4E90012881832461399FEF782FD60680A
:101710003044606000BF05F08000C8B15046FEF75D
:1017200071FD86B2310A6268501C60602068815485
:101730006268501C606020688654D4E900128818E2
:1017400032465146FEF765FD60683044606000BF78
:1017500005F04000C8B15846FEF754FD86B2310A84
:101760006268501C6060206881546268501C606030
:1017700020688654D4E90012881832465946FEF78C
:1017800048FD60683044606000BF0020C7E600008C
:101790000000000010B5044602212046FFF737FE86
:1017A000206808B9012010BDC0216268501C60602B
:1017B0002068815400216268501C60602068815458
:1017C0000020F0E72DE9F84F8046894693469A4677
:1017D0000D9C00270025002000900026B8F1000F86
:1017E00002D10120BDE8F88F00250AE019F80500B4
:1017F000232803D019F805002B2801D10220F1E796
:101800006D1C19F805000028F0D146F030060B9841
:1018100008B146F0010605EB0A00871C0A9820B1C2
:10182000012804D002280AD105E000BF09E046F0F3
:101830000206BF1C05E046F00406BF1C01E00320C1
:10184000D0E700BFF91C2046FFF7E1FD206808B98A
:101850000420C7E7F91C2068FEF7A1FC6168481C5A
:10186000606020684654D4E9000281183846FFF7CA
:10187000B7FD00900098002804DA2046FFF7A2FD8B
:101880000520AFE76168009808446060C5F3072150
:101890006268501C6060206881546268501C6060FF
:1018A00020688554D4E9001288182A464946FEF774
:1018B000B0FC6068284460600A9860B14FEA182163
:1018C0006268501C6060206881546268501C6060CF
:1018D000206800F80280BBF1000F09D0D4E90012A3
:1018E000881852465946FEF794FC60685044606080
:1018F000002077E72DE9FF4107460D4690461E463A
:101900000A9C01200021CDE90001EB1C0A460FA131
:10191000CDE902040A20FFF755FF88B96168481C29
:10192000606020684654C5F307216268501C6060FF
:10193000206881546268501C60602068855403E010
:10194000012004B0BDE8F0810020FAE724647000B3
:101950001FB5002000900190029003906846FFF7A9
:1019600019FF80B9019A91B20098FFF737FA06A1E2
:101970000948009A01F06CF86846FFF723FD07A1BB
:10198000054801F065F81FBD50696E6720646174F9
:10199000613A25780D0A00000038014050696E67F1
:1019A00020737563636565640D0A0000F0B5044635
:1019B0000D462646012300201060002114E0775CCC
:1019C00007F07F07106807FB03001060705C00F0F1
:1019D000800008B9481CF0BDDB01B3F5001F02D33D
:1019E0006FF00100F7E7491CA942E8DB4FF0FF3038
:1019F000F1E72DE9F84380460C4615461E462F2197
:101A000008F10600FEF7F4FB07460020009017B926
:101A10000120BDE8F8837F1C6A46042108F101001B
:101A2000FFF7C4FF252001F0F9FD2060206808B908
:101A30000220EEE725212068FEF7B1FB242239467B
:101A40002068FEF793FB243700982C3830803188CB
:101A5000481C01F0E3FD2860286820B9206801F0E7
:101A600011FD0320D5E73288511C2868FEF797FB4B
:101A7000328839462868FEF779FB0020C9E701461D
:101A80004878022801D001207047887810B1887802
:101A9000012801D1C878F7E7FF20F5E7014648782B
:101AA000022801D001207047887820B9C8780A2818
:101AB00001D10020F7E70120F5E70000F8B5044662
:101AC000FF2720780511012D01DB0E2D01DD3846A1
:101AD000F8BD032D24D1002000906A460421601C2B
:101AE000FFF764FF2044461C0098022803D32078A7
:101AF00000F0010008B1FF20EAE77078317840EA91
:101B00000120801C0099884201D9FF20E0E706A14E
:101B1000B01CFEF75BFB08B10F2700E0032700E0D5
:101B20002F463846D4E70000246372657100000038
:101B300000BFFEE77047000070B5002100230F22B0
:101B4000C47804B3154C246804F4E064C4F5E0647C
:101B5000210AC1F10403CA40447804FA03F18478ED
:101B60001440214309010E4C0678A155047804F075
:101B70001F050124AC4005786D11AD0005F1E0258D
:101B8000C5F8004109E0047804F01F050124AC40C9
:101B9000044D0678761145F8264070BD0CED00E046
:101BA00000E400E080E100E002490143024A1160E4
:101BB000704700000000FA050CED00E030B58BB076
:101BC00000200790089009900A90012533A1384819
:101BD00000F03EFF37A03AA33BA23DA1009034485D
:101BE00000F036FF07A8002102910391CDE904100F
:101BF00000916B022FA2019131A133A0FFF77AFC73
:101C0000002844D1089A91B20798FFF7E7F8FA2024
:101C1000FEF7AAFF0446002C33D02046FFF74EFF04
:101C200002282ED12046FFF72AFF062823D2DFE81C
:101C300000F003090E13181D2DA11D4800F008FF28
:101C400000251DE02FA11A4800F002FF18E034A182
:101C5000174800F0FDFE13E03AA1154800F0F8FE29
:101C60000EE040A1124800F0F3FE09E046A1104842
:101C700000F0EEFE04E04FA10D4800F0E9FE00BFC9
:101C800000BF07A8FFF79EFBFEF760FF03E050A12F
:101C9000074800F0DDFE28460BB030BD4F6E654EA4
:101CA00045545F4465764C696E6B0D0A0000000078
:101CB00000380140383538323935303337000000CC
:101CC0003132333400000000343732393937000004
:101CD00050524F49443A2025732C09415549463A00
:101CE0002025732C0944455649443A25730D0A00B2
:101CF000546970733A09C1ACBDD3B3C9B9A60D0A12
:101D0000000000005741524E3A09C1ACBDD3CAA7EA
:101D1000B0DCA3BAD0ADD2E9B4EDCEF30D0A000029
:101D20005741524E3A09C1ACBDD3CAA7B0DCA3BAE1
:101D3000B7C7B7A8B5C4636C69656E7469640D0AEA
:101D4000000000005741524E3A09C1ACBDD3CAA7AA
:101D5000B0DCA3BAB7FECEF1C6F7CAA7B0DC0D0A55
:101D6000000000005741524E3A09C1ACBDD3CAA78A
:101D7000B0DCA3BAD3C3BBA7C3FBBBF2C3DCC2EBCB
:101D8000B4EDCEF30D0A00005741524E3A09C1ACF2
:101D9000BDD3CAA7B0DCA3BAB7C7B7A8C1B4BDD377
:101DA00028B1C8C8E7746F6B656EB7C7B7A8290DAF
:101DB0000A0000004552523A09C1ACBDD3CAA7B0CF
:101DC000DCA3BACEB4D6AAB4EDCEF30D0A0000005F
:101DD0005741524E3A094D5154545F5061636B65FF
:101DE00074436F6E6E656374204661696C65640D43
:101DF0000A00000070B5A0B0044680216846FEF7D6
:101E0000CEF932A00088208080216846FEF7C7F90D
:101E10002F4802782FA1684600F058FE69462046F8
:101E2000FEF7C8F980216846FEF7B9F92C482DA1C4
:101E30000CC8684600F04AFE69462046FEF7BAF92B
:101E400080216846FEF7ABF929480068FEF797FB4A
:101E500005462A460B4627A1684600F037FE69462C
:101E60002046FEF7A7F9012280216846FEF790F987
:101E700023480068FEF783FB05462A460B4621A14E
:101E8000684600F023FE69462046FEF793F90222D9
:101E900080216846FEF77CF91D480068FEF76FFB5D
:101EA00005462A460B461BA1684600F00FFE694610
:101EB0002046FEF77FF91AA12046FEF77BF920465F
:101EC000FEF7A0F9C0B220B070BD00007B0000009A
:101ED0004C000020226B6579223A25642C0000001A
:101EE000280000202274656D70223A25662C0000BF
:101EF000440000202277696E64223A25662C000097
:101F00003C0000202273616E223A25662C000000FE
:101F100038000020227261696E223A2566000000B6
:101F20007D0000002DE9F0418CB0074600200890AC
:101F300009900A900B9007900690059000250026C6
:101F4000002480463846FFF7B9FD0546042D37D0FA
:101F50000F2D3ED105AB07AA06A93846FFF749FD6C
:101F60000646002E2BD1BDF81400009033A13C484A
:101F7000DDE9062300F06CFD3AA10798FEF726F98B
:101F800018B101203949087007E039A10798FEF718
:101F90001DF910B100203549087008AADDE90601D5
:101FA000FFF762FA58B934A12D4800F051FD099AA3
:101FB00091B20898FEF712FF08A8FFF703FA0BE0AA
:101FC0003846FFF76BFD18B931A1254800F040FDF8
:101FD00002E04FF0FF3600BF00BFFEF7B7FD701CF8
:101FE00010B90CB0BDE8F0817D210798FEF700F92B
:101FF0000446A4B1701C90B1641C06E014F8012BD7
:10200000404608F1010802A90A542078302802DB72
:1020100020783928F2DD02A8FEF70FF980460F2D4F
:1020200001D0032D05D1069801F02CFA079801F094
:1020300029FAFEF78BFD00BFD3E70000636D6469EA
:10204000643A2025732C207265713A2025732C2068
:102050007265715F6C656E3A2025640D0A000000A0
:10206000003801406F70656E000000004C000020D9
:10207000636C6F7365000000546970733A095365AF
:102080006E6420436D64526573700D0A0000000099
:10209000546970733A094D515454205075626C69FB
:1020A00073682053656E64204F4B0D0A00000000DA
:1020B00030B5A5B0002021902290239024900024D8
:1020C00000251EA1254800F0C3FC802101A8FEF7D1
:1020D00066F801A8FFF78EFE044601AA20A11F485A
:1020E00000F0B6FC002C26D021A8032300222146B4
:1020F00000901DA0FFF7FEFBC8B908E001A8415DF4
:10210000229A501C229021988154681C05B2A54245
:10211000F4DB229A91B22198FEF760FE15A10F48D8
:10212000229A00F095FC21A8FFF74CF903E015A1D5
:102130000A4800F08DFC25B030BD00005469707372
:102140003A094F6E654E65745F53656E6444617401
:10215000612D4D5154540D0A00000000003801401B
:1021600025730D0A00000000383538323935303318
:102170003700000053656E64202564204279746541
:10218000730D0A005741524E3A094D5154545F4E57
:102190006577427566666572204661696C65640D97
:1021A0000A0000007047000029B1064AD2690243C4
:1021B000044BDA6104E0034AD2698243014BDA61DD
:1021C000704700000010024029B1064A926902439C
:1021D000044B9A6104E0034A92698243014B9A617D
:1021E000704700000010024030B50021002200249A
:1021F00000232D4D6D6805F00C0121B1042905D097
:10220000082923D105E0294D056022E0274D05600E
:102210001FE0254D6D6805F47012234D6D6805F4BF
:102220008034022505EB92421CB9214D55430560CF
:102230000BE01D4D6D6805F400351DB11C4D554377
:10224000056002E0194D5543056002E0174D056039
:1022500000BF00BF144D6D6805F0F0010909154D70
:102260006B5C0568DD4045600F4D6D6805F4E0610D
:10227000090A104D6B5C4568DD4085600A4D6D684C
:1022800005F46051C90A0B4D6B5C4568DD40C560C3
:10229000054D6D6805F44041890B074D6B5CC568C1
:1022A000B5FBF3F5056130BD0010024000127A0065
:1022B00000093D00000000201000002008B50121A9
:1022C0000802FFF781FFFC20ADF8000001208DF827
:1022D000020010208DF8030069460248FEF740FF17
:1022E00008BD000000200140704710B500F002F862
:1022F00010BD00000CB5002001900090334800682C
:1023000040F480303149086000BF3048006800F474
:10231000003000900198401C0190009818B9019875
:10232000B0F5A06FF1D12948006800F4003010B179
:102330000120009001E0002000900098012843D186
:102340002348006840F010002149086008460068F2
:1023500020F0030008600846006840F002000860B2
:102360001A4840681949486008464068486008466D
:10237000406840F4806048600846406820F47C1063
:1023800048600846406840F4E81048600846006825
:1023900040F08070086000BF0C48006800F00070DA
:1023A0000028F9D00948406820F003000749486038
:1023B0000846406840F00200486000BF034840689B
:1023C00000F00C000828F9D10CBD000000100240FC
:1023D000002002407047704710B51348006840F075
:1023E00001001149086008464068104908400E493C
:1023F0004860084600680E4908400B4908600846D6
:10240000006820F4802008600846406820F4FE0040
:1024100048604FF41F008860FFF767FF4FF00060CF
:102420000449086010BD0000001002400000FFF8E1
:10243000FFFFF6FE08ED00E010B50121144800F0A2
:1024400044F818B30121124800F030F81148006830
:10245000401C1049086010480068401C0E49086084
:102460000C480068B0F5FA6F05D101200B490870DF
:1024700000200849086008480068B0F5FA5F05D1F7
:1024800001200749087000200349086010BD0000C2
:10249000002C0140140000201800002054000020EF
:1024A000550000207047CA4302827047CA43028227
:1024B000704721B1028842F00102028004E00288E4
:1024C0004FF6FE731A400280704730B50246002076
:1024D00000230024158A05EA0103958905EA010411
:1024E00013B10CB1012000E0002030BD1AB1838986
:1024F0000B43838102E083898B4383817047000013
:1025000070B5002400220023058C4FF6FE7635407E
:102510000584028C8388048B4FF68F752C40B51E82
:102520002C400D882C43751E2A400D892A434D8866
:102530002A43144DA8420BD0134DA84208D0134D86
:10254000A84205D0124DA84202D0124DA84213D184
:102550004FF6F7752A404D892A434FF6FB752A40FE
:102560008D882A434FF6FF652B404FF6FF552B40D1
:102570008D892B43CD892B4383800483CD88858629
:10258000028470BD002C0140003401400040014035
:1025900000440140004801400A460021018B4FF6EB
:1025A000F77319401143018370478186704700001B
:1025B000002202881D4B98420ED01D4B98420BD032
:1025C000B0F1804F08D01B4B984205D01A4B98426F
:1025D00002D01A4B984204D14FF68F731A404B88A1
:1025E0001A43174B984207D0164B984204D04FF627
:1025F000FF431A40CB881A4302808B8883850B885F
:1026000003850A4B98420BD0094B984208D00E4BD9
:10261000984205D00D4B984202D00D4B984201D103
:102620000B7A03860123838270470000002C01404F
:10263000003401400004004000080040000C00404D
:1026400000100040001400400040014000440140E0
:10265000004801407FB505460C460121C802FFF73E
:10266000B3FD681E80B2ADF80800601E80B2ADF800
:1026700004000020ADF80600ADF80A008DF80C004B
:1026800001A90F48FFF794FF19208DF800000120E1
:102690008DF8030000208DF801008DF802006846D7
:1026A000FFF74AFA01210648FFF7FDFE0122114615
:1026B0000348FFF71BFF01210148FFF7FAFE7FBD2A
:1026C000002C014010B540F22551044800F050F8AC
:1026D00018B12021014800F029F810BD0038014050
:1026E00010B540F225510E4800F042F8B0B10D4847
:1026F0000088C82802D300200A4908800848001D25
:102700000088C1B2074802880088401C054B188029
:10271000054881542021024800F008F810BD00004F
:1027200000440040200000206400002001F40072FA
:10273000B2F5007F00D100BFCA430280704721B1CB
:10274000828942F40052828104E082894DF6FF734F
:102750001A408281704702460020B1F5007F00D107
:1027600000BF13880B400BB1012000E00020704730
:1027700070B50246002400230025002040F66A16AA
:10278000B14200D100BFC1F3421501F01F03012681
:1027900006FA03F3012D02D19689334006E0022D9B
:1027A00002D1168A334001E0968A33400C1201268A
:1027B00006FA04F41688344013B10CB1012000E08D
:1027C000002070BDF0B5034600240026002500203F
:1027D00040F66A17B94200D100BF1846C1F342144F
:1027E00001F01F06012707FA06F5012C01D10C3074
:1027F00004E0022C01D1103000E014301AB1076857
:102800002F43076002E00768AF430760F0BD000098
:102810002DE9F04786B005460E460024A24600BFCB
:10282000A1460027B08900B100BF2F462C8A4CF684
:10283000FF700440F08804432C82AC894EF6F310FC
:102840000440B08831890843718908430443AC814E
:10285000AC8A4FF6FF400440B0890443AC8201A823
:10286000FFF7C2FC1F48874202D1DDF810A001E04B
:10287000DDF80CA0A88900F4004040B10AEBCA00C2
:1028800000EB0A1031684900B0FBF1F807E00AEBF1
:10289000CA0000EB0A1031688900B0FBF1F864202F
:1028A000B8FBF0F004012009642101FB1089A8891C
:1028B00000F4004040B1322000EBC900B0FBF1F061
:1028C00000F00700044308E0322000EB0910642107
:1028D000B0FBF1F000F00F0004432C8106B0BDE81E
:1028E000F087000000380140C1F308028280704781
:1028F00000BFFEE710B586B0044601210420FFF7B3
:1029000063FC01218803FFF75FFC18208DF8170096
:102910004FF40070ADF8140003208DF8160005A9DF
:102920001E48FEF71DFC04208DF817000002ADF8CC
:10293000140003208DF8160005A91848FEF710FCB6
:1029400001940020ADF810000C20ADF80E0000201E
:10295000ADF80C00ADF80A00ADF8080001A9104868
:10296000FFF756FF01210E48FFF7E9FE012240F272
:1029700025510B48FFF726FF25208DF80000012088
:102980008DF8030000208DF8010002208DF8020070
:102990006846FFF7D1F806B010BD000000080140FE
:1029A0000038014010B586B0044601210420FFF72D
:1029B0000BFC01214804FFF7F7FB18208DF81700E6
:1029C0000420ADF8140003208DF8160005A91E4858
:1029D000FEF7C6FB04208DF817000820ADF81400A0
:1029E00003208DF8160005A91748FEF7B9FB0194DE
:1029F0000020ADF810000C20ADF80E000020ADF85E
:102A00000C00ADF80A00ADF8080001A90F48FFF767
:102A1000FFFE01210D48FFF792FE012240F22551F1
:102A20000A48FFF7CFFE26208DF8000001208DF820
:102A3000030000208DF801008DF802006846FFF7C2
:102A40007BF806B010BD00000008014000440040C3
:102A50000FB430B5CBB0054601AC50A800904FF490
:102A6000947101A8009B4F9A00F044F80020009058
:102A70000BE014F8011B2846FFF736FF00BF40218A
:102A80002846FFF768FE0028F9D020780028F0D10A
:102A90004BB030BC5DF814FB2DE9F04107460C4605
:102AA000154600260DE014F8011B3846FFF71CFF01
:102AB00000BF40213846FFF74EFE0028F9D0701CB9
:102AC00086B2AE42EFDBBDE8F08100000FB4084BE8
:102AD00010B504A902AA039800F0FCF8044602A964
:102AE000002000F085FC204610BC5DF814FB0000BF
:102AF000F13300087CB50C001D461646014601D096
:102B0000601E00E00020CDE90010064B6A46294611
:102B1000304600F0DFF8002C02D0009A002111703E
:102B20007CBD0000DB3300080048704760000020D7
:102B300002E008C8121F08C1002AFAD17047704786
:102B4000002001E001C1121F002AFBD170470000E4
:102B50002DE9FF5F82B00021DDE90430020DDDF8D0
:102B600040B0034318D044F61050A2F2FF32424363
:102B70001514119801281FD0A5EB0B00401C5FEA2B
:102B8000000A4FF000064E4FDFF83891B04650462D
:102B900015D5CAF1000413E0119801244AA30128B5
:102BA00001D16FEA0B010298119AC0E90031C0E926
:102BB000024206B0BDE8F09FCBF10000DFE704461B
:102BC0000021404A491842EB0450CDE9001012E0C0
:102BD000E00707D032463B4640464946FDF7E1FB59
:102BE0008046894632463B4610461946FDF7D9FBDA
:102BF00006460F466410002CEAD1DDE90401DDE948
:102C00000023BAF1000F06DAFDF7CBFB42464B4634
:102C1000FDF7C7FB05E0FDF736FC42464B46FDF7E6
:102C200032FC04460E460022284BFDF7D1FD03D8A6
:102C30004FF0FF30014607E00022254B2046314689
:102C4000FDF708FBFDF7ABFD102409E0002C0ADBC3
:102C50000A220023FDF7BCFC039B30321A55641E88
:102C600050EA0102F2D1641C039AC4F11103144426
:102C7000119A012A03D0012208430DD10AE008432A
:102C800004D000204FF0110B119072E7A3EB0B055D
:102C90006D1E0DE05B4504DD4FF0000205F10105FE
:102CA00004E003DA4FF00002A5F10105002AECD0A0
:102CB00002981199C0E90231C0E9004579E70000A6
:102CC000000014400000F03F300000000000F0431E
:102CD0000000E03F2DE9FF4F95B09A468846064632
:102CE0000025EEE1252877D100242746F94A012165
:102CF000039400E0044316F8013F203B01FA03F07F
:102D00001042F7D130782A2811D06FF02F03307895
:102D1000A0F13002092A16D8039A44F0020402EB0B
:102D2000820203EB42021044761C0390EFE758F84E
:102D3000042B0392002A03DA504244F40054039017
:102D400044F00204761C30782E2816D116F8010FB4
:102D500044F004042A280DD06FF02F023078A0F13F
:102D60003003092B09D807EB870302EB4303C7188D
:102D7000761CF3E758F8047B761C30786C280FD06B
:102D800006DC4C2817D068280DD06A2814D104E03E
:102D9000742810D07A280FD10DE044F400140AE012
:102DA00044F4801401E044F440147278824202D169
:102DB00004F58014761C761C307866280BD013DC62
:102DC000582877D009DC002875D04528F6D0462849
:102DD000F4D047281AD193E118E0632835D064284D
:102DE00079D0652812D18BE1702873D008DC672870
:102DF000F1D069286FD06E280DD06F2806D1ACE0D5
:102E000073282CD0752874D0782853D0524617993F
:102E100090476D1C54E1C4F30250022809D00328E6
:102E20000DD0D8F8001004280DD00D6008F104086A
:102E300046E1D8F80010EA17C1E90052F6E7D8F8E1
:102E400000100D80F2E70D70F0E718F8041B8DF804
:102E5000001000208DF80100EB46012003E058F837
:102E600004BB4FF0FF3061074FF0000102D40DE0CA
:102E700009F101018946B9420FDA8145F8DB1BF8F7
:102E800009100029F4D108E009F1010189468142C5
:102E9000FADB1BF809100029F6D103985346A0EB82
:102EA000090721463846179A00F080FA284400EBBB
:102EB000090507E044E008E10DE01BF8010B52466C
:102EC00017999047B9F10109F7D253462146384680
:102ED000179AF2E039E00A21C4F302524FF0000BD6
:102EE0000091022A06D058F8040BC117032A09D012
:102EF0000AE023E008F1070020F00702F2E80201EF
:102F0000904605E000B2C117042A01D140B2C117B2
:102F1000002906DA0A460021404261EB02012D2217
:102F200002E0220504D52B228DF80420012203E0C3
:102F3000E20701D02022F7E7914657E00A2100E09E
:102F400010214FF0000B00910BE010214FF0000B0F
:102F500044F004040827009103E008204FF0000B20
:102F60000090C4F30252022A05D058F8040B002145
:102F7000032A08D008E008F1070020F00702F2E871
:102F80000201904603E080B2042A00D1C0B24FF0A3
:102F9000000922072AD53278702A07D0DDF800C050
:102FA0008CF0100C5CEA0B0C05D00EE040228DF882
:102FB0000420012208E050EA010306D030238DF8F6
:102FC00004308DF8052002229146009B83F008030F
:102FD00053EA0B030AD150EA010201D1620705D579
:102FE00030228DF804204FF001097F1E3278582AD4
:102FF00004D039A20C920CAA02920BE03BA2F9E792
:103000005B46009AFDF7E4FA0C9B9B5C029A521E09
:103010000292137050EA0102F2D1029804A9081A30
:1030200000F1200B600702D524F4803400E0012772
:103030005F4502DDA7EB0B0000E0002000EB0B0179
:10304000009003984944401A0390E00306D4534685
:103050002146179A039800F0A9F90544002706E0D5
:1030600001A85246C05D179990476D1C7F1C4F45C3
:10307000F6DBE0030CD553462146179A039800F07F
:1030800095F9054404E030205246179990476D1C8D
:103090000099481E00900029F5DC08E0029802998A
:1030A00052460078491C0291179990476D1CBBF15C
:1030B0000001ABF1010BF1DC5BE100F065F90544C7
:1030C000761C307800287FF40DAE19B02846BDE894
:1030D000F08F0000092801003031323334353637A3
:1030E0003839616263646566000000003031323354
:1030F00034353637383941424344454600000000F4
:10310000600700D4062708F1070020F00700F0E868
:103110000223804603F0004C5FEA0C0001D097A028
:1031200009E0200501D596A005E0E00701D095A0B3
:1031300001E0AFF24C001390307823F00043652893
:103140000CD006DC452809D046281DD047287FD161
:103150003BE0662818D067287AD136E00021112F8D
:1031600001DB112000E0781CCDE9000104A90CA8C6
:10317000FFF7EEFCDDE90D010C9A4FF0000B07F1B3
:103180000109109200914EE04FF000400097CDE908
:10319000011004A90CA8FFF7DBFCDDE90D020C9B74
:1031A0000F994FF0000B91461093009211B9791CC2
:1031B00000EB0109B7EB090003D4C0F1FF3B07F1B5
:1031C0000109A9EB0700019042E0012F00DA012775
:1031D0000021112F01DD112000E03846CDE900016A
:1031E00004A90CA8FFF7B4FCDDE90D010C9A0091CD
:1031F0004FF0000BB946109221070FD4009A4A45B0
:1032000003DA914601E0A9F10109B9F1010F05DDE9
:10321000109AA9F10101515C3029F4D0B84202DAC8
:1032200010F1040F03DA0121CDE9011010E00028AC
:1032300003DC8344A9EB000102E0411C494500DDA9
:103240008946A0EB0B00401C01904FF0004002901B
:10325000200705D40198484502DB4FF0FF3001906C
:1032600000208DF84B0002980DF14B07B0F1004F94
:1032700025D002200C902B200D90029800280CDA0B
:10328000404202902D200D9007E00A210298FDF7A0
:1032900089F93031029007F8011D0C99481E0C90F5
:1032A0000029F2DC02980028EFD1791E0D980870F1
:1032B000307800F0200040F0450007F8020D11A81A
:1032C000C01BC01D02901398007800B1012000EBD4
:1032D0000901019801EBE071029801440398401A3A
:1032E000401E0390E00306D453462146179A0398E4
:1032F00000F05CF805441398007818B1524617990D
:1033000090476D1CE00323D553462146179A039836
:1033100000F04CF805441BE0BBF1000F07DB009800
:10332000584504DD1098179910F80B0001E0179923
:1033300030205246904701980BF1010B401E05F1D9
:103340000105019004D12E205246179990476D1C1B
:10335000B9F10001A9F10109DEDC05E017F8010B64
:103360005246179990476D1C0299481E02900029F9
:10337000F4DC53462146179A03989EE62D00000080
:103380002B000000200000002DE9F041044600253C
:103390001E461746880404D405E039462020B0476D
:1033A0006D1C641EF9D52846BDE8F0812DE9F04179
:1033B000044600251E469046C80301D5302700E08C
:1033C0002027880404D505E041463846B0476D1CE7
:1033D000641EF9D52846BDE8F0814A68002A06D067
:1033E0000A68531C0B6010704868401E48607047A4
:1033F0000A68531C0B60107070470000002100B970
:10340000704720F07F400E4A128842434FF0E0237D
:103410005A6100229A6101221A6100BF4FF0E02236
:10342000116901F001021AB101F48032002AF5D0CD
:1034300000224FF0E0231A619A6100BFE0E700002C
:103440001E000020002120F07F400D4A12784243E8
:103450004FF0E0235A6100229A6101221A6100BFF5
:103460004FF0E022116901F001021AB101F480323B
:10347000002AF5D000224FF0E0231A619A617047CC
:103480001C00002010B5002821D0114B0022001F85
:10349000196803E0814203D80A4649680029F9D136
:1034A00052B11368841A9C4204D100681844106019
:1034B000104602E0506000E0186039B102680B1A53
:1034C000934203D10B681A4402604968416010BD01
:1034D000580000204FF4A060FEF766FBFDF71AFBD2
:1034E0004FF4E130FFF706FA4FF4E130FFF75AFAF4
:1034F000FDF732FDFEF7E2FEFDF73AFA482141F210
:103500008830FFF7A7F800F0BFF8C3213548FFF770
:103510004CF84FF4FA70FFF771FF4FF4FA70FFF7B1
:103520006DFFAF212F48FFF740F84FF4FA70FFF717
:1035300065FF4FF4FA70FFF761FFB9212948FFF7E3
:1035400034F8FDF71FFFFDF7F1FEFDF735FB03E053
:103550004FF4FA70FFF752FFFEF730FB0028F7D167
:103560003EE0FDF7D1FDFEF735FF1F48007801284A
:1035700011D1B9211B48FFF718F800F0D1F8012844
:1035800009D1AF211748FFF710F81848184908600B
:103590001848194908601448007818B9AF21114833
:1035A000FFF703F81548007860B100201349087050
:1035B000FDF732FA12A11748FFF74AFAFEF778FD35
:1035C000FDF7C4FA1448007830B1002012490870A1
:1035D000FEF7BEF9FDF7BAFA4FF47A70FFF70EFF67
:1035E000BFE70000000400404C0000209A991940F9
:1035F00038000020333353403C00002054000020AA
:103600004F6E654E65745F53656E64446174610D01
:103610000A0000000038014055000020F0B50B30D2
:10362000154D20F007010024144A0FE003688B4277
:103630000BD38B4205D95E1A43184768C3E900676C
:1036400000E04368136002C004E0021D1068002817
:10365000ECD12046002802D1286808B10020F0BD36
:10366000064A07481060074A121A22F00702C0E90A
:10367000002401202860D7E75C00002058000020CB
:10368000340100203003002000B589B00121102052
:10369000FEF79AFD01210220FEF786FD0121084672
:1036A000FEF792FD4020ADF8200003208DF82200A7
:1036B00018208DF8230008A91648FDF751FDC720F2
:1036C000ADF8180041F61F40ADF814000020ADF829
:1036D0001A00ADF8160005A90F48FEF769FF012191
:1036E0000E48FDF7C9FD6020ADF804000120ADF8DB
:1036F00006000220ADF80C0001A90748FEF700FF04
:1037000008210548FEF748FF01210348FEF7D1FED6
:1037100009B000BD0010014000040040000C1A0078
:1037200010B501210648FDF7EFFD28B1022104483C
:10373000FDF7EAFD012801D1012010BD0020FCE7C2
:10374000000C01400040404040404040404041416A
:103750004141414040404040404040404040404066
:103760004040404040050202020202020202020200
:1037700002020202022020202020202020202002FD
:10378000020202020202909090909090101010108D
:103790001010101010101010101010101010101029
:1037A00002020202020288888888888808080808BD
:1037B0000808080808080808080808080808080889
:1037C000020202024000000045370008EC37000802
:1037D0000000002064000000302B00085038000872
:1037E00064000020CC060000402B00080000000010
:1037F0000102030401020304060708090204060883
:1038000000000000000000000000000000000000B8
:10381000000000000000000000003940000000002F
:1038200000003E40CDCC4C40666606400000404063
:103830000000E04000000000010000000000000067
:103840000000000000000000000000000000000078
:0400000508000131BD
:00000001FF
